:100000000C9478000C94C5040C949E040C94A000ED
:100010000C94A0000C94A0000C94A0000C94A000E0
:100020000C94A0000C94A0000C94A0000C94A000D0
:100030000C94A0000C94A0000C94A0000C94A000C0
:100040000C9454040C94A0000C9412050C94EC0431
:100050000C94A0000C94A0000C94A0000C94A000A0
:100060000C94A0000C94A0005E01011F0103030189
:10007000008A02010A010202010064001E47040B0B
:100080000906007C0101060103030100F401060ECC
:100090000102020100C20117010102020101000078
:1000A0000008000201000003040700000000000037
:1000B000000000000000250028002B0000000000C8
:1000C000240027002A000404040404040404020297
:1000D00002020202030303030303010204081020C7
:1000E00040800102040810200102040810206E055F
:1000F00011241FBECFEFD8E0DEBFCDBF11E0A0E0DE
:10010000B1E0E4E2FFE002C005900D92AE39B10724
:10011000D9F722E0AEE9B1E001C01D92A83FB207D5
:10012000E1F710E0C8E7D0E004C02197FE010E948B
:100130008507C737D107C9F70E94A2050C9490071D
:100140000C94000090E0FC01E652FF4F2491FC016A
:10015000EA53FF4F8491882399F090E0880F991F0C
:10016000FC01E454FF4FA591B491FC01EE54FF4F04
:10017000859194918FB7F894EC91E22BEC938FBF1B
:10018000089590E0FC01E256FF4F2491FC01E652F5
:10019000FF4F3491FC01EA53FF4FE491EE2309F441
:1001A0003CC0222339F1233091F038F42130A9F0FA
:1001B000223001F584B58F7D12C0273091F02830B0
:1001C000A1F02430B9F4809180008F7D03C080912C
:1001D00080008F77809380000DC084B58F7784BDB9
:1001E00009C08091B0008F7703C08091B0008F7DEF
:1001F0008093B000F0E0EE0FFF1FEE54FF4FA5918B
:10020000B4919FB7F894611104C08C913095382354
:1002100002C0EC913E2B3C939FBF08951F93CF9358
:10022000DF93182FD92F8091E802882319F060E01E
:10023000C1E002C061E0C0E08091DC020E94C10028
:100240002091E0023091E102129FC001139F900DB6
:1002500011248230910538F0880F991F880F991F5B
:1002600005970197F1F76C2F8091DC020E94C10085
:100270002091E0023091E102D29FC001D39F900D06
:1002800011248230910538F0880F991F880F991F2B
:1002900005970197F1F7DF91CF911F9108953FB72F
:1002A000F8948091390290913A02A0913B02B0916A
:1002B0003C0226B5A89B05C02F3F19F00196A11D51
:1002C000B11D3FBFBA2FA92F982F8827820F911DEC
:1002D000A11DB11DBC01CD0142E0660F771F881F33
:1002E000991F4A95D1F708958F929F92AF92BF922E
:1002F000CF92DF92EF92FF926B017C010E944F013F
:100300004B015C01C114D104E104F104F1F00E943D
:100310004F01DC01CB0188199909AA09BB09883E64
:100320009340A105B10570F321E0C21AD108E1089C
:10033000F10888EE880E83E0981EA11CB11CC11440
:10034000D104E104F10419F7DDCFFF90EF90DF90C5
:10035000CF90BF90AF909F908F9008950895CF92C7
:10036000DF92EF92FF920F931F93CF93DF936C0175
:100370007A018B01C0E0D0E0CE15DF0581F0D80115
:100380006D918D01D601ED91FC910190F081E02DF0
:10039000C6010995892B11F02196EECF7E01C70188
:1003A000DF91CF911F910F91FF90EF90DF90CF9051
:1003B0000895089580E090E00895FC01538D448DE8
:1003C000252F30E0842F90E0821B930B541710F000
:1003D000CF96089501970895FC01918D828D98170D
:1003E00061F0828DDF01A80FB11D5D968C91928D19
:1003F0009F5F9F73928F90E008958FEF9FEF089516
:10040000FC01918D828D981731F0828DE80FF11DDE
:10041000858D90E008958FEF9FEF0895FC01918DF9
:10042000228D892F90E0805C9F4F821B91098F73F2
:10043000992708958DE392E00E940E0221E0892B16
:1004400009F420E0822F0895FC01848DDF01A80FBC
:10045000B11DA35ABF4F2C91848D90E001968F73EC
:100460009927848FA689B7892C93A089B1898C910B
:10047000837080648C93938D848D981306C002885A
:10048000F389E02D80818F7D80830895EF92FF9224
:100490000F931F93CF93DF93EC0181E0888F9B8DA7
:1004A0008C8D981305C0E889F989808185FD26C067
:1004B000F62E0B8D10E00F5F1F4F0F731127E02EEC
:1004C0008C8DE8120CC00FB607FCFACFE889F989C9
:1004D000808185FFF5CFCE010E942402F1CF8B8D64
:1004E000FE01E80FF11DE35AFF4FF0829FB7F89429
:1004F0000B8FEA89FB89808180620AC09FB7F894DC
:10050000EE89FF896083E889F9898081837080643E
:1005100080839FBF81E090E0DF91CF911F910F9189
:10052000FF90EF900895CF93DF93EC01888D88239F
:10053000C9F0EA89FB89808185FD05C0A889B98950
:100540008C9186FD0FC00FB607FCF5CF808185FF2B
:10055000F2CFA889B9898C9185FFEDCFCE010E9499
:100560002402E7CFDF91CF91089580E090E0892BBE
:1005700029F00E941A0281110C9400000895FC01D8
:10058000808191818F3FFFEF9F0721F110922E0212
:1005900010922F021092300210923102282F8230D6
:1005A000C8F4FC01FF27EE0FFF1FEE5FFE4F8DE04A
:1005B00093E09183808380916900213031F08C7FBA
:1005C000816080936900E89A0895837F84608093B6
:1005D0006900E99A0895009769F0FC0101900020F4
:1005E000E9F73197AF01481B590BBC018DE392E04D
:1005F0000C94AF0180E090E00895CF93DF930E94C8
:10060000EB02EC0188E491E00E94EB028C0F9D1F4D
:10061000DF91CF9108950E948B072F923F924F92C6
:100620005F926F927F928F929F92AF92BF92CF9282
:10063000DF92EF92FF920F931F93CF93DF93CDB78B
:10064000DEB761970FB6F894DEBF0FBECDBF0E9434
:100650004F016B017C0180912802909129023601A3
:10066000681A790A2DEC621620E1720608F4DAC0E5
:100670008091A2019091A301F301E81BF90BCF0136
:10068000F7FF03C0919581959109883C91050CF085
:10069000C5C08091A0019091A10101969093A10104
:1006A0008093A001029709F0B9C008E610E04090DD
:1006B0009E0150909F0149E050E0B801CE010196A3
:1006C0000E9446078B816C81681708F4682F70E0E0
:1006D0008091A2019091A3010E944F079B0140913C
:1006E000000150910101649FC001659F900D749FAE
:1006F000900D112464E670E00E944F0789858111F6
:1007000003C041E050E002C042E050E08D81829F92
:100710001001839F300C1124398A288A8E81829F90
:10072000F001839FF00D1124FB87EA878F81829F60
:100730001001839F300C11243D862C868885829F72
:10074000F001839FF00D1124FF87EE87FA01EE0F71
:10075000FF1FEE55FE4F812C912C5401D2011197B1
:100760004A175B0708F041C0880C991CAA1CBB1CE7
:10077000808191819C01288839882219330937FFAB
:1007800003C03195219531092617370770F422816E
:1007900033812A843B842219330937FF03C0319502
:1007A0002195310926173707E0F02C843D84821902
:1007B000930997FF03C09195819591098617970733
:1007C00008F5828193812E853F85821B930B97FFCD
:1007D00003C09195819591098617970798F46894BD
:1007E00080F84E5F5F4F3496BBCF38E0431651041C
:1007F00048F080922E0290922F02A0923002B09286
:10080000310208C0075F1F4F8EE990E08017910703
:1008100009F04DCF1092A1011092A00110929F01FA
:1008200010929E0180919E0190919F0183349105C9
:1008300040F010929F0110929E011092A10110921F
:10084000A00180919E0190919F019C012F5F3F4FDD
:1008500030939F0120939E01880F991FFC01EE5554
:10086000FE4F71826082C0922802D0922902E092EB
:100870002A02F0922B0261960FB6F894DEBF0FBEEB
:10088000CDBFDF91CF911F910F91FF90EF90DF903F
:10089000CF90BF90AF909F908F907F906F905F9020
:1008A0004F903F902F9008951F920F920FB60F9286
:1008B00011242F933F938F939F93AF93BF93809176
:1008C000350290913602A0913702B09138023091F2
:1008D000340223E0230F2D3720F40196A11DB11D12
:1008E00005C026E8230F0296A11DB11D20933402F6
:1008F0008093350290933602A0933702B09338026A
:100900008091390290913A02A0913B02B0913C0251
:100910000196A11DB11D8093390290933A02A093D4
:100920003B02B0933C02BF91AF919F918F913F9159
:100930002F910F900FBE0F901F9018951F920F923E
:100940000FB60F9211242F933F934F935F936F93A2
:100950007F938F939F93AF93BF93EF93FF93E09118
:100960000401F09105010995FF91EF91BF91AF91BD
:100970009F918F917F916F915F914F913F912F91B7
:100980000F900FBE0F901F9018951F920F920FB6E9
:100990000F9211242F933F934F935F936F937F9305
:1009A0008F939F93AF93BF93EF93FF93E0910201D7
:1009B000F09103010995FF91EF91BF91AF919F9144
:1009C0008F917F916F915F914F913F912F910F90F8
:1009D0000FBE0F901F9018951F920F920FB60F9297
:1009E00011242F933F934F935F936F937F938F9334
:1009F0009F93AF93BF93EF93FF938DE392E00E9499
:100A00002402FF91EF91BF91AF919F918F917F91C0
:100A10006F915F914F913F912F910F900FBE0F906B
:100A20001F9018951F920F920FB60F9211242F93BB
:100A30008F939F93EF93FF93E0914D02F0914E02BD
:100A40008081E0915302F091540282FD12C09081A6
:100A5000809156028F5F8F7320915702821751F059
:100A6000E0915602F0E0E35CFD4F958F80935602D3
:100A700001C08081FF91EF919F918F912F910F90F5
:100A80000FBE0F901F9018950F931F93CF93DF9376
:100A9000EC010FEF1FEF1B830A838AE090E09D8338
:100AA0008C8349E050E068E670E0CE0106960E9433
:100AB0004607198308838CE390E0909301018093AB
:100AC000000110922E0210922F021092300210920A
:100AD0003102DF91CF911F910F910895EDE3F2E084
:100AE0001382128288EE93E0A0E0B0E084839583C5
:100AF000A683B7838AE391E09183808385EC90E0BD
:100B00009587848784EC90E09787868780EC90E0D7
:100B1000918B808B81EC90E0938B828B82EC90E0C8
:100B2000958B848B86EC90E0978B868B118E128E42
:100B3000138E148E89EE92E00E9444058AED92E0B5
:100B40000C944405CF93DF93CDB7DEB7A1970FB6D2
:100B5000F894DEBF0FBECDBF789484B5826084BDAB
:100B600084B5816084BD85B5826085BD85B58160B1
:100B700085BD80916E00816080936E00109281002F
:100B800080918100826080938100809181008160EA
:100B900080938100809180008160809380008091AB
:100BA000B10084608093B1008091B0008160809337
:100BB000B00080917A00846080937A0080917A00FE
:100BC000826080937A0080917A00816080937A00BD
:100BD00080917A00806880937A001092C100E09141
:100BE0004D02F0914E0282E08083E0914902F09143
:100BF0004A021082E0914B02F0914C028FEC80830C
:100C000010925502E0915102F091520286E08083E9
:100C1000E0914F02F0915002808180618083E091E9
:100C20004F02F0915002808188608083E0914F02F2
:100C3000F0915002808180688083E0914F02F091B2
:100C4000500280818F7D80831092EA021092E90227
:100C500089EE92E00E94BF028AE090E09093DD026C
:100C60008093DC020E94A2008CE090E090932D0221
:100C700080932C028DE00E94A2008BE491E00E9400
:100C8000FD028AE591E00E94FD028091320290917E
:100C90003302009709F4C9C0039708F0F4C033E0A9
:100CA000832E912C26E0222E21E0322EC12CD12C35
:100CB00080912C0290912D02C816D9060CF0A1C08B
:100CC000F10141905190619071901F01FFEF4F1A17
:100CD0005F0A6F0A7F0A8091DC029091DD02019623
:100CE00009F464C00091DA021091DB020F3F8FEF2C
:100CF0001807B9F0023078F4013011F0E89801C01B
:100D0000E998F801FF27EE0FFF1FEE5FFE4F8EEA16
:100D100091E091838083EFEFFFEFF093DB02E093AC
:100D2000DA02A12CB12C8091DE029091DF02A8168C
:100D3000B90684F587E1E82EF12C81E090E0A0E08F
:100D4000B0E00E2C04C0880F991FAA1FBB1F0A9485
:100D5000D2F784219521A621B721892B8A2B8B2BB1
:100D600029F08091E6029091E70204C08091E402AC
:100D70009091E5020E940E01F1E0EF1AF108E8F609
:100D80008091E2029091E3020E940E018FEFA81A77
:100D9000B80AC9CF0F3F9FEF190741F01093DB024C
:100DA0000093DA028AED92E00E94BF0287E691E0AA
:100DB0000E94EB0219A28E010F5D1F4FC301B20109
:100DC0002AE030E040E050E00E94630729013A0148
:100DD000605DF80162938F01232B242B252B71F783
:100DE000CF010E94EB0288E491E00E94EB0264EFE5
:100DF00071E080E090E00E947401FFEFCF1ADF0AFB
:100E000057CF68E97AE380E090E00E94740121E026
:100E1000821A910809F046CF1092330210923202E2
:100E20008AE591E00E94FD022EC080912E029091F1
:100E30002F02A0913002B09131020097A105B105B7
:100E400011F1813EEEEA9E0749F481E090E0909333
:100E50003302809332028FE691E00BC0823E9E4ABD
:100E600051F482E090E0909333028093320285E85F
:100E700091E00E94FD0210922E0210922F02109219
:100E80003002109231020E94B502FFCEFB01DC015C
:100E900002C005900D9241505040D8F70895AA1B0A
:100EA000BB1B51E107C0AA1FBB1FA617B70710F055
:100EB000A61BB70B881F991F5A95A9F78095909587
:100EC000BC01CD010895A1E21A2EAA1BBB1BFD0196
:100ED0000DC0AA1FBB1FEE1FFF1FA217B307E40719
:100EE000F50720F0A21BB30BE40BF50B661F771F71
:100EF000881F991F1A9469F7609570958095909551
:100F00009B01AC01BD01CF010895EE0FFF1F0590BD
:100F1000F491E02D099481E090E0F8940C9490070E
:040F2000F894FFCF73
:100F24003C00AE01AE01E1AE630011ACD200111C75
:100F34009F00117AF30011320100E106C800113A52
:100F440007001192630011DC0300E17A9600111A84
:100F5400D60011DC0A00000000004602AF01DD01EA
:100F640093020E02EC0100020D0A005365747570C1
:100F740020636F6D706C657465004C697374656E85
:100F8400696E672E2E2E005B636F64655D200054CE
:100F940072616E736D697474696E67207570206315
:100FA4006F646573005472616E736D697474696EF5
:0E0FB4006720646F776E20636F6465730000C2
:00000001FF
