:100000000C9478000C9486050C945F050C94A00069
:100010000C94A0000C94A0000C94A0000C94A000E0
:100020000C94A0000C94A0000C94A0000C94A000D0
:100030000C94A0000C94A0000C94A0000C94A000C0
:100040000C9415050C94A0000C94D3050C94AD05EC
:100050000C94A0000C94A0000C94A0000C94A000A0
:100060000C94A0000C94A0005E01011F0103030189
:10007000008A02010A010202010064001E47040B0B
:100080000906007C0101060103030100F401060ECC
:100090000102020100C20117010102020101000078
:1000A0000008000201000003040700000000000037
:1000B000000000000000250028002B0000000000C8
:1000C000240027002A000404040404040404020297
:1000D00002020202030303030303010204081020C7
:1000E00040800102040810200102040810202F069D
:1000F00011241FBECFEFD8E0DEBFCDBF11E0A0E0DE
:10010000B1E0ECE2FFE002C005900D92A43AB10725
:10011000D9F722E0A4EAB1E001C01D92AA3FB207DC
:10012000E1F710E0C8E7D0E004C02197FE010E948B
:100130008907C737D107C9F70E9463060C94940753
:100140000C94000090E0FC01E652FF4F2491FC016A
:10015000EA53FF4F8491882399F090E0880F991F0C
:10016000FC01E454FF4FA591B491FC01EE54FF4F04
:10017000859194918FB7F894EC91E22BEC938FBF1B
:10018000089590E0FC01E256FF4F2491FC01E652F5
:10019000FF4F3491FC01EA53FF4FE491EE2309F441
:1001A0003CC0222339F1233091F038F42130A9F0FA
:1001B000223001F584B58F7D12C0273091F02830B0
:1001C000A1F02430B9F4809180008F7D03C080912C
:1001D00080008F77809380000DC084B58F7784BDB9
:1001E00009C08091B0008F7703C08091B0008F7DEF
:1001F0008093B000F0E0EE0FFF1FEE54FF4FA5918B
:10020000B4919FB7F894611104C08C913095382354
:1002100002C0EC913E2B3C939FBF08951F93CF9358
:10022000DF93182FD92F8091EA02882319F060E01C
:10023000C1E002C061E0C0E08091DE020E94C10026
:100240002091E2023091E302129FC001139F900DB2
:1002500011248230910538F0880F991F880F991F5B
:1002600005970197F1F76C2F8091DE020E94C10083
:100270002091E2023091E302D29FC001D39F900D02
:1002800011248230910538F0880F991F880F991F2B
:1002900005970197F1F7DF91CF911F9108953FB72F
:1002A000F89480913B0290913C02A0913D02B09164
:1002B0003E0226B5A89B05C02F3F19F00196A11D4F
:1002C000B11D3FBFBA2FA92F982F8827820F911DEC
:1002D000A11DB11DBC01CD0142E0660F771F881F33
:1002E000991F4A95D1F708958F929F92AF92BF922E
:1002F000CF92DF92EF92FF920E944F014B015C017F
:1003000084EFC82EDD24D394E12CF12C0E944F0100
:10031000DC01CB0188199909AA09BB09883E9340E1
:10032000A105B10598F321E0C21AD108E108F1084E
:1003300088EE880E83E0981EA11CB11CC114D10464
:10034000E104F10419F7FF90EF90DF90CF90BF9098
:10035000AF909F908F9008950895CF92DF92EF9283
:10036000FF920F931F93CF93DF936C017A018B0160
:10037000C0E0D0E0CE15DF0581F0D8016D918D0190
:10038000D601ED91FC910190F081E02DC601099517
:10039000892B11F02196EECF7E01C701DF91CF911D
:1003A0001F910F91FF90EF90DF90CF9008950895E7
:1003B00080E090E00895FC01538D448D252F30E0BE
:1003C000842F90E0821B930B541710F0CF96089562
:1003D00001970895FC01918D828D981761F0828DAF
:1003E000DF01A80FB11D5D968C91928D9F5F9F7369
:1003F000928F90E008958FEF9FEF0895FC01918D0B
:10040000828D981731F0828DE80FF11D858D90E077
:1004100008958FEF9FEF0895FC01918D228D892F14
:1004200090E0805C9F4F821B91098F7399270895FC
:100430008FE392E00E940C0221E0892B09F420E076
:10044000822F0895FC01848DDF01A80FB11DA35AEE
:10045000BF4F2C91848D90E001968F739927848FE4
:10046000A689B7892C93A089B1898C918370806407
:100470008C93938D848D981306C00288F389E02DA8
:1004800080818F7D80830895EF92FF920F931F9359
:10049000CF93DF93EC0181E0888F9B8D8C8D981337
:1004A00005C0E889F989808185FD26C0F62E0B8D6F
:1004B00010E00F5F1F4F0F731127E02E8C8DE81295
:1004C0000CC00FB607FCFACFE889F989808185FF57
:1004D000F5CFCE010E942202F1CF8B8DFE01E80FF5
:1004E000F11DE35AFF4FF0829FB7F8940B8FEA8912
:1004F000FB89808180620AC09FB7F894EE89FF89EA
:100500006083E889F98980818370806480839FBFDC
:1005100081E090E0DF91CF911F910F91FF90EF90DC
:100520000895CF93DF93EC01888D8823C9F0EA8981
:10053000FB89808185FD05C0A889B9898C9186FDDC
:100540000FC00FB607FCF5CF808185FFF2CFA889D9
:10055000B9898C9185FFEDCFCE010E942202E7CFB1
:10056000DF91CF91089580E090E0892B29F00E94DF
:10057000180281110C9400000895FC018081918182
:100580008F3FFFEF9F0721F110923202109233024A
:100590001092340210923502282F8230C8F4FC01E8
:1005A000FF27EE0FFF1FEE5FFE4F8BE093E091837E
:1005B000808380916900213031F08C7F816080934D
:1005C0006900E89A0895837F846080936900E99ABE
:1005D0000895009769F0FC0101900020E9F7319738
:1005E000AF01481B590BBC018FE392E00C94AD01A5
:1005F00080E090E00895CF93DF930E94E902EC0140
:1006000088E491E00E94E9028C0F9D1FDF91CF9159
:1006100008950E948F072F923F924F925F926F92A0
:100620007F928F929F92AF92BF92CF92DF92EF9282
:10063000FF920F931F93CF93DF93CDB7DEB76197F0
:100640000FB6F894DEBF0FBECDBF0E944F016B0105
:100650007C0180912E0290912F023601681A790A4E
:100660002DEC621620E1720608F4DAC08091A80130
:100670009091A901F301E81BF90BCF01F7FF03C02B
:10068000919581959109883C91050CF0C5C08091A8
:10069000A6019091A70101969093A7018093A601CE
:1006A000029709F0B9C008E610E04090A40150900C
:1006B000A50149E050E0B801CE0101960E944A0729
:1006C0008B816C81681708F4682F70E08091A80115
:1006D0009091A9010E9453079B0140910001509104
:1006E0000101649FC001659F900D749F900D1124BE
:1006F00064E670E00E9453078985811103C041E0E0
:1007000050E002C042E050E08D81829F1001839F43
:10071000300C1124398A288A8E81829FF001839FB0
:10072000F00D1124FB87EA878F81829F1001839F40
:10073000300C11243D862C868885829FF001839F92
:10074000F00D1124FF87EE87FA01EE0FFF1FE85529
:10075000FE4F812C912C5401D20111974A175B074F
:1007600008F041C0880C991CAA1CBB1C8081918197
:100770009C01288839882219330937FF03C0319535
:10078000219531092617370770F4228133812A8495
:100790003B842219330937FF03C031952195310974
:1007A00026173707E0F02C843D848219930997FFC0
:1007B00003C09195819591098617970708F5828165
:1007C00093812E853F85821B930B97FF03C09195E4
:1007D000819591098617970798F4689480F84E5F81
:1007E0005F4F3496BBCF38E04316510448F08092F7
:1007F000320290923302A0923402B092350208C0C5
:10080000075F1F4F8EE990E08017910709F04DCFE9
:100810001092A7011092A6011092A5011092A401B6
:100820008091A4019091A5018334910540F010922C
:10083000A5011092A4011092A7011092A601809127
:10084000A4019091A5019C012F5F3F4F3093A5011A
:100850002093A401880F991FFC01E855FE4F718277
:100860006082C0922E02D0922F02E0923002F0926B
:10087000310261960FB6F894DEBF0FBECDBFDF9197
:10088000CF911F910F91FF90EF90DF90CF90BF908D
:10089000AF909F908F907F906F905F904F903F9020
:1008A0002F9008954F925F926F927F928F929F92B6
:1008B000AF92BF92CF92DF92EF92FF920F931F936E
:1008C000CF93DF93CDB7DEB7A1970FB6F894DEBF15
:1008D0000FBECDBF2B013C018BE491E00E94E902E9
:1008E00019A2A30192018E010F5D1F4F6AE0C62E6F
:1008F000D12CE12CF12CCA01B901A70196010E946B
:100900006707605DF80162938F012115310541058C
:10091000510589F7CF010E94E90288E491E00E9425
:10092000E9028091DE029091DF02019609F466C02F
:100930000091DC021091DD020F3F2FEF1207B9F09A
:10094000023078F4013011F0E89801C0E998F8011C
:10095000FF27EE0FFF1FEE5FFE4F8CEA91E09183C1
:1009600080838FEF9FEF9093DD028093DC02C12C98
:10097000D12C812C912C540183948091E002909190
:10098000E102C816D90674F587E1E82EF12CD501ED
:10099000C4010E2C04C0880F991FAA1FBB1F0A9404
:1009A000D2F784219521A621B721892B8A2B8B2B65
:1009B00029F08091E8029091E90204C08091E6025A
:1009C0009091E7020E940E0181E0E81AF108F8F622
:1009D0008091E4029091E5020E940E01FFEFCF1A90
:1009E000DF0ACBCF0F3F2FEF120741F01093DD024C
:1009F0000093DC028CED92E00E94BD02A1960FB63E
:100A0000F894DEBF0FBECDBFDF91CF911F910F9144
:100A1000FF90EF90DF90CF90BF90AF909F908F901E
:100A20007F906F905F904F9008951F920F920FB636
:100A30000F9211242F933F938F939F93AF93BF9364
:100A40008091370290913802A0913902B0913A0218
:100A50003091360223E0230F2D3720F40196A11D9B
:100A6000B11D05C026E8230F0296A11DB11D2093DC
:100A700036028093370290933802A0933902B093E4
:100A80003A0280913B0290913C02A0913D02B091CC
:100A90003E020196A11DB11D80933B0290933C0242
:100AA000A0933D02B0933E02BF91AF919F918F9171
:100AB0003F912F910F900FBE0F901F9018951F928E
:100AC0000F920FB60F9211242F933F934F935F9382
:100AD0006F937F938F939F93AF93BF93EF93FF9306
:100AE000E0910401F09105010995FF91EF91BF910B
:100AF000AF919F918F917F916F915F914F913F91B6
:100B00002F910F900FBE0F901F9018951F920F926C
:100B10000FB60F9211242F933F934F935F936F93D0
:100B20007F938F939F93AF93BF93EF93FF93E09146
:100B30000201F09103010995FF91EF91BF91AF91EF
:100B40009F918F917F916F915F914F913F912F91E5
:100B50000F900FBE0F901F9018951F920F920FB617
:100B60000F9211242F933F934F935F936F937F9333
:100B70008F939F93AF93BF93EF93FF938FE392E095
:100B80000E942202FF91EF91BF91AF919F918F91AF
:100B90007F916F915F914F913F912F910F900FBE79
:100BA0000F901F9018951F920F920FB60F9211245D
:100BB0002F938F939F93EF93FF93E0914F02F091C8
:100BC00050028081E0915502F091560282FD12C0E0
:100BD0009081809158028F5F8F7320915902821704
:100BE00051F0E0915802F0E0E15CFD4F958F809369
:100BF000580201C08081FF91EF919F918F912F91B9
:100C00000F900FBE0F901F9018950F931F93CF93C7
:100C1000DF93EC010FEF1FEF1B830A838AE090E064
:100C20009D838C8349E050E068E670E0CE01069633
:100C30000E944A07198308838CE390E09093010196
:100C4000809300011092320210923302109234020B
:100C500010923502DF91CF911F910F910895EFE32C
:100C6000F2E01382128288EE93E0A0E0B0E0848389
:100C70009583A683B7838AE391E09183808385EC93
:100C800090E09587848784EC90E09787868780EC56
:100C900090E0918B808B81EC90E0938B828B82EC47
:100CA00090E0958B848B86EC90E0978B868B118EF1
:100CB000128E138E148E8BEE92E00E9405068CED40
:100CC00092E00C940506789484B5826084BD84B566
:100CD000816084BD85B5826085BD85B5816085BD37
:100CE00080916E00816080936E00109281008091EF
:100CF0008100826080938100809181008160809377
:100D00008100809180008160809380008091B1009B
:100D100084608093B1008091B00081608093B000C6
:100D200080917A00846080937A0080917A0082605A
:100D300080937A0080917A00816080937A0080911C
:100D40007A00806880937A001092C100E0914F028F
:100D5000F091500282E08083E0914B02F0914C02CE
:100D60001082E0914D02F0914E028FEC8083109240
:100D70005702E0915302F091540286E08083E091A3
:100D80005102F0915202808180618083E091510292
:100D9000F0915202808188608083E0915102F0914D
:100DA0005202808180688083E0915102F09152026A
:100DB00080818F7D80831092EC021092EB028BEE8B
:100DC00092E00E94BD028AE090E09093DF0280935F
:100DD000DE020E94A2008DE00E94A20083E591E065
:100DE0000E94FB028FE791E00E94FB0206E311E004
:100DF0008091320290913302A0913402B091350279
:100E00000097A105B10509F442C0813E2EEA920780
:100E10002FEFA207B207B1F482E691E00E94FB0235
:100E2000C6E0D1E069917991899199910E9452042B
:100E30000E9474010C171D07A9F788E791E00E9432
:100E4000FB021DC0823E9E4AAF4FBF4FC1F48CE8EB
:100E500091E00E94FB02C6E0D1E089919991A991AD
:100E6000B991BC01CD016F5F7F4F8F4F9F4F0E94A3
:100E700052040E9474010C171D0779F7DECF1092FF
:100E800032021092330210923402109235020E9404
:100E9000B302AECFFB01DC0102C005900D924150C0
:100EA0005040D8F70895AA1BBB1B51E107C0AA1FE9
:100EB000BB1FA617B70710F0A61BB70B881F991FFB
:100EC0005A95A9F780959095BC01CD010895A1E2AE
:100ED0001A2EAA1BBB1BFD010DC0AA1FBB1FEE1FB4
:100EE000FF1FA217B307E407F50720F0A21BB30BFF
:100EF000E40BF50B661F771F881F991F1A9469F77B
:100F000060957095809590959B01AC01BD01CF01D6
:100F10000895EE0FFF1F0590F491E02D099481E0F4
:0C0F200090E0F8940C949407F894FFCF34
:100F2C003C00AC01AC01E1AE630011ACD200111C71
:100F3C009F00117AF30011320100E106C800113A4A
:100F4C0007001192630011DC0300E17A9600111A7C
:100F5C00D60011DC0A00000000004402AD01DB01E8
:100F6C0091020C02EA01FE010D0A0073656E6469C0
:100F7C006E6700536574757020636F6D706C65746B
:100F8C0065005472616E736D697474696E67207557
:100F9C007020636F64657300446F6E652E200A4C7D
:100FAC00697374656E696E672E2E2E005472616EB5
:100FBC00736D697474696E6720646F776E20636FEC
:040FCC0064657300E5
:00000001FF
